{
  "address": "0xcAB0d540A42D7D212AdE27462721Ea86E50fA2aC",
  "abi": [
    {
      "inputs": [],
      "stateMutability": "nonpayable",
      "type": "constructor"
    },
    {
      "anonymous": false,
      "inputs": [
        {
          "indexed": true,
          "internalType": "address",
          "name": "owner",
          "type": "address"
        },
        {
          "indexed": true,
          "internalType": "address",
          "name": "approved",
          "type": "address"
        },
        {
          "indexed": true,
          "internalType": "uint256",
          "name": "tokenId",
          "type": "uint256"
        }
      ],
      "name": "Approval",
      "type": "event"
    },
    {
      "anonymous": false,
      "inputs": [
        {
          "indexed": true,
          "internalType": "address",
          "name": "owner",
          "type": "address"
        },
        {
          "indexed": true,
          "internalType": "address",
          "name": "operator",
          "type": "address"
        },
        {
          "indexed": false,
          "internalType": "bool",
          "name": "approved",
          "type": "bool"
        }
      ],
      "name": "ApprovalForAll",
      "type": "event"
    },
    {
      "anonymous": false,
      "inputs": [
        {
          "indexed": true,
          "internalType": "address",
          "name": "previousOwner",
          "type": "address"
        },
        {
          "indexed": true,
          "internalType": "address",
          "name": "newOwner",
          "type": "address"
        }
      ],
      "name": "OwnershipTransferred",
      "type": "event"
    },
    {
      "anonymous": false,
      "inputs": [
        {
          "indexed": true,
          "internalType": "address",
          "name": "from",
          "type": "address"
        },
        {
          "indexed": true,
          "internalType": "address",
          "name": "to",
          "type": "address"
        },
        {
          "indexed": true,
          "internalType": "uint256",
          "name": "tokenId",
          "type": "uint256"
        }
      ],
      "name": "Transfer",
      "type": "event"
    },
    {
      "inputs": [
        {
          "internalType": "address",
          "name": "to",
          "type": "address"
        },
        {
          "internalType": "uint256",
          "name": "tokenId",
          "type": "uint256"
        }
      ],
      "name": "approve",
      "outputs": [],
      "stateMutability": "nonpayable",
      "type": "function"
    },
    {
      "inputs": [
        {
          "internalType": "address",
          "name": "owner",
          "type": "address"
        }
      ],
      "name": "balanceOf",
      "outputs": [
        {
          "internalType": "uint256",
          "name": "",
          "type": "uint256"
        }
      ],
      "stateMutability": "view",
      "type": "function"
    },
    {
      "inputs": [
        {
          "internalType": "string",
          "name": "_url",
          "type": "string"
        }
      ],
      "name": "generateQuiz",
      "outputs": [],
      "stateMutability": "nonpayable",
      "type": "function"
    },
    {
      "inputs": [],
      "name": "getAllNFTs",
      "outputs": [
        {
          "internalType": "uint256[]",
          "name": "",
          "type": "uint256[]"
        }
      ],
      "stateMutability": "view",
      "type": "function"
    },
    {
      "inputs": [],
      "name": "getAllQuizzes",
      "outputs": [
        {
          "components": [
            {
              "internalType": "string",
              "name": "url",
              "type": "string"
            },
            {
              "internalType": "address",
              "name": "owner",
              "type": "address"
            }
          ],
          "internalType": "struct QuizNFT.Quiz[]",
          "name": "",
          "type": "tuple[]"
        }
      ],
      "stateMutability": "view",
      "type": "function"
    },
    {
      "inputs": [],
      "name": "getAllQuizzesCreatedByMe",
      "outputs": [
        {
          "internalType": "uint256[]",
          "name": "",
          "type": "uint256[]"
        }
      ],
      "stateMutability": "view",
      "type": "function"
    },
    {
      "inputs": [
        {
          "internalType": "uint256",
          "name": "tokenId",
          "type": "uint256"
        }
      ],
      "name": "getApproved",
      "outputs": [
        {
          "internalType": "address",
          "name": "",
          "type": "address"
        }
      ],
      "stateMutability": "view",
      "type": "function"
    },
    {
      "inputs": [
        {
          "internalType": "address",
          "name": "owner",
          "type": "address"
        },
        {
          "internalType": "address",
          "name": "operator",
          "type": "address"
        }
      ],
      "name": "isApprovedForAll",
      "outputs": [
        {
          "internalType": "bool",
          "name": "",
          "type": "bool"
        }
      ],
      "stateMutability": "view",
      "type": "function"
    },
    {
      "inputs": [],
      "name": "mintNTFQuiz",
      "outputs": [],
      "stateMutability": "nonpayable",
      "type": "function"
    },
    {
      "inputs": [],
      "name": "name",
      "outputs": [
        {
          "internalType": "string",
          "name": "",
          "type": "string"
        }
      ],
      "stateMutability": "view",
      "type": "function"
    },
    {
      "inputs": [],
      "name": "owner",
      "outputs": [
        {
          "internalType": "address",
          "name": "",
          "type": "address"
        }
      ],
      "stateMutability": "view",
      "type": "function"
    },
    {
      "inputs": [
        {
          "internalType": "uint256",
          "name": "tokenId",
          "type": "uint256"
        }
      ],
      "name": "ownerOf",
      "outputs": [
        {
          "internalType": "address",
          "name": "",
          "type": "address"
        }
      ],
      "stateMutability": "view",
      "type": "function"
    },
    {
      "inputs": [
        {
          "internalType": "uint256",
          "name": "",
          "type": "uint256"
        }
      ],
      "name": "quizzes",
      "outputs": [
        {
          "internalType": "string",
          "name": "url",
          "type": "string"
        },
        {
          "internalType": "address",
          "name": "owner",
          "type": "address"
        }
      ],
      "stateMutability": "view",
      "type": "function"
    },
    {
      "inputs": [
        {
          "internalType": "address",
          "name": "",
          "type": "address"
        },
        {
          "internalType": "uint256",
          "name": "",
          "type": "uint256"
        }
      ],
      "name": "quizzesCreatedByWallet",
      "outputs": [
        {
          "internalType": "uint256",
          "name": "",
          "type": "uint256"
        }
      ],
      "stateMutability": "view",
      "type": "function"
    },
    {
      "inputs": [],
      "name": "renounceOwnership",
      "outputs": [],
      "stateMutability": "nonpayable",
      "type": "function"
    },
    {
      "inputs": [
        {
          "internalType": "address",
          "name": "from",
          "type": "address"
        },
        {
          "internalType": "address",
          "name": "to",
          "type": "address"
        },
        {
          "internalType": "uint256",
          "name": "tokenId",
          "type": "uint256"
        }
      ],
      "name": "safeTransferFrom",
      "outputs": [],
      "stateMutability": "nonpayable",
      "type": "function"
    },
    {
      "inputs": [
        {
          "internalType": "address",
          "name": "from",
          "type": "address"
        },
        {
          "internalType": "address",
          "name": "to",
          "type": "address"
        },
        {
          "internalType": "uint256",
          "name": "tokenId",
          "type": "uint256"
        },
        {
          "internalType": "bytes",
          "name": "data",
          "type": "bytes"
        }
      ],
      "name": "safeTransferFrom",
      "outputs": [],
      "stateMutability": "nonpayable",
      "type": "function"
    },
    {
      "inputs": [
        {
          "internalType": "address",
          "name": "operator",
          "type": "address"
        },
        {
          "internalType": "bool",
          "name": "approved",
          "type": "bool"
        }
      ],
      "name": "setApprovalForAll",
      "outputs": [],
      "stateMutability": "nonpayable",
      "type": "function"
    },
    {
      "inputs": [
        {
          "internalType": "bytes4",
          "name": "interfaceId",
          "type": "bytes4"
        }
      ],
      "name": "supportsInterface",
      "outputs": [
        {
          "internalType": "bool",
          "name": "",
          "type": "bool"
        }
      ],
      "stateMutability": "view",
      "type": "function"
    },
    {
      "inputs": [],
      "name": "symbol",
      "outputs": [
        {
          "internalType": "string",
          "name": "",
          "type": "string"
        }
      ],
      "stateMutability": "view",
      "type": "function"
    },
    {
      "inputs": [
        {
          "internalType": "uint256",
          "name": "index",
          "type": "uint256"
        }
      ],
      "name": "tokenByIndex",
      "outputs": [
        {
          "internalType": "uint256",
          "name": "",
          "type": "uint256"
        }
      ],
      "stateMutability": "view",
      "type": "function"
    },
    {
      "inputs": [
        {
          "internalType": "address",
          "name": "owner",
          "type": "address"
        },
        {
          "internalType": "uint256",
          "name": "index",
          "type": "uint256"
        }
      ],
      "name": "tokenOfOwnerByIndex",
      "outputs": [
        {
          "internalType": "uint256",
          "name": "",
          "type": "uint256"
        }
      ],
      "stateMutability": "view",
      "type": "function"
    },
    {
      "inputs": [
        {
          "internalType": "uint256",
          "name": "tokenId",
          "type": "uint256"
        }
      ],
      "name": "tokenURI",
      "outputs": [
        {
          "internalType": "string",
          "name": "",
          "type": "string"
        }
      ],
      "stateMutability": "view",
      "type": "function"
    },
    {
      "inputs": [],
      "name": "totalSupply",
      "outputs": [
        {
          "internalType": "uint256",
          "name": "",
          "type": "uint256"
        }
      ],
      "stateMutability": "view",
      "type": "function"
    },
    {
      "inputs": [
        {
          "internalType": "address",
          "name": "from",
          "type": "address"
        },
        {
          "internalType": "address",
          "name": "to",
          "type": "address"
        },
        {
          "internalType": "uint256",
          "name": "tokenId",
          "type": "uint256"
        }
      ],
      "name": "transferFrom",
      "outputs": [],
      "stateMutability": "nonpayable",
      "type": "function"
    },
    {
      "inputs": [
        {
          "internalType": "address",
          "name": "newOwner",
          "type": "address"
        }
      ],
      "name": "transferOwnership",
      "outputs": [],
      "stateMutability": "nonpayable",
      "type": "function"
    }
  ],
  "transactionHash": "0xf792f214ab2ec87e61234792be2645c28030bacb979b734b5ec67637eb326130",
  "args": [],
  "numDeployments": 1,
  "solcInputHash": "fa61fbbf4b386ab702a7539542031ad2",
  "bytecode": "0x60806040523480156200001157600080fd5b5060405180604001604052806008815260200167145d5a5e8813919560c21b815250604051806040016040528060048152602001631453919560e21b815250816000908162000061919062000193565b50600162000070828262000193565b5050506200008d620000876200009860201b60201c565b6200009c565b6001600e556200025f565b3390565b600a80546001600160a01b038381166001600160a01b0319831681179093556040519116919082907f8be0079c531659141344cd1fd0a4f28419497f9722a3daafe3b4186f6b6457e090600090a35050565b634e487b7160e01b600052604160045260246000fd5b600181811c908216806200011957607f821691505b6020821081036200013a57634e487b7160e01b600052602260045260246000fd5b50919050565b601f8211156200018e57600081815260208120601f850160051c81016020861015620001695750805b601f850160051c820191505b818110156200018a5782815560010162000175565b5050505b505050565b81516001600160401b03811115620001af57620001af620000ee565b620001c781620001c0845462000104565b8462000140565b602080601f831160018114620001ff5760008415620001e65750858301515b600019600386901b1c1916600185901b1785556200018a565b600085815260208120601f198616915b8281101562000230578886015182559484019460019091019084016200020f565b50858210156200024f5787850151600019600388901b60f8161c191681555b5050505050600190811b01905550565b61212a806200026f6000396000f3fe608060405234801561001057600080fd5b506004361061018e5760003560e01c8063715018a6116100de578063b88d4fde11610097578063e985e9c511610071578063e985e9c514610354578063ee2ff6ab14610390578063f2fde38b146103a3578063ff857642146103b657600080fd5b8063b88d4fde14610326578063c87b56dd14610339578063e0391b091461034c57600080fd5b8063715018a6146102be57806388409afa146102c65780638da5cb5b146102e757806395d89b41146102f8578063a0fcea0514610300578063a22cb4651461031357600080fd5b80632f745c591161014b5780634f6ccce7116101255780634f6ccce7146102705780636352211e146102835780636a4af0fa1461029657806370a08231146102ab57600080fd5b80632f745c59146102355780633b0092b61461024857806342842e0e1461025d57600080fd5b806301ffc9a71461019357806306fdde03146101bb578063081812fc146101d0578063095ea7b3146101fb57806318160ddd1461021057806323b872dd14610222575b600080fd5b6101a66101a13660046119e1565b6103be565b60405190151581526020015b60405180910390f35b6101c36103e9565b6040516101b29190611a4e565b6101e36101de366004611a61565b61047b565b6040516001600160a01b0390911681526020016101b2565b61020e610209366004611a96565b6104a2565b005b6008545b6040519081526020016101b2565b61020e610230366004611ac0565b6105bc565b610214610243366004611a96565b6105ed565b610250610683565b6040516101b29190611afc565b61020e61026b366004611ac0565b6106e3565b61021461027e366004611a61565b6106fe565b6101e3610291366004611a61565b610791565b61029e6107f1565b6040516101b29190611b40565b6102146102b9366004611bbf565b61095c565b61020e6109e2565b6102d96102d4366004611a61565b6109f6565b6040516101b2929190611bda565b600a546001600160a01b03166101e3565b6101c3610aa3565b61020e61030e366004611c90565b610ab2565b61020e610321366004611cd9565b610b92565b61020e610334366004611d15565b610ba1565b6101c3610347366004611a61565b610bd9565b610250610c4d565b6101a6610362366004611d91565b6001600160a01b03918216600090815260056020908152604080832093909416825291909152205460ff1690565b61021461039e366004611a96565b610ced565b61020e6103b1366004611bbf565b610d1e565b61020e610d97565b60006001600160e01b0319821663780e9d6360e01b14806103e357506103e382610db4565b92915050565b6060600080546103f890611dc4565b80601f016020809104026020016040519081016040528092919081815260200182805461042490611dc4565b80156104715780601f1061044657610100808354040283529160200191610471565b820191906000526020600020905b81548152906001019060200180831161045457829003601f168201915b5050505050905090565b600061048682610e04565b506000908152600460205260409020546001600160a01b031690565b60006104ad82610791565b9050806001600160a01b0316836001600160a01b03160361051f5760405162461bcd60e51b815260206004820152602160248201527f4552433732313a20617070726f76616c20746f2063757272656e74206f776e656044820152603960f91b60648201526084015b60405180910390fd5b336001600160a01b038216148061053b575061053b8133610362565b6105ad5760405162461bcd60e51b815260206004820152603d60248201527f4552433732313a20617070726f76652063616c6c6572206973206e6f7420746f60448201527f6b656e206f776e6572206f7220617070726f76656420666f7220616c6c0000006064820152608401610516565b6105b78383610e63565b505050565b6105c63382610ed1565b6105e25760405162461bcd60e51b815260040161051690611df8565b6105b7838383610f50565b60006105f88361095c565b821061065a5760405162461bcd60e51b815260206004820152602b60248201527f455243373231456e756d657261626c653a206f776e657220696e646578206f7560448201526a74206f6620626f756e647360a81b6064820152608401610516565b506001600160a01b03919091166000908152600660209081526040808320938352929052205490565b336000908152600d602090815260409182902080548351818402810184019094528084526060939283018282801561047157602002820191906000526020600020905b8154815260200190600101908083116106c6575050505050905090565b6105b783838360405180602001604052806000815250610ba1565b600061070960085490565b821061076c5760405162461bcd60e51b815260206004820152602c60248201527f455243373231456e756d657261626c653a20676c6f62616c20696e646578206f60448201526b7574206f6620626f756e647360a01b6064820152608401610516565b6008828154811061077f5761077f611e45565b90600052602060002001549050919050565b6000818152600260205260408120546001600160a01b0316806103e35760405162461bcd60e51b8152602060048201526018602482015277115490cdcc8c4e881a5b9d985b1a59081d1bdad95b88125160421b6044820152606401610516565b60606000600b5467ffffffffffffffff81111561081057610810611c04565b60405190808252806020026020018201604052801561085657816020015b60408051808201909152606081526000602082015281526020019060019003908161082e5790505b50905060005b600b54811015610956576000818152600c602052604090819020815180830190925280548290829061088d90611dc4565b80601f01602080910402602001604051908101604052809291908181526020018280546108b990611dc4565b80156109065780601f106108db57610100808354040283529160200191610906565b820191906000526020600020905b8154815290600101906020018083116108e957829003601f168201915b5050509183525050600191909101546001600160a01b0316602090910152825183908390811061093857610938611e45565b6020026020010181905250808061094e90611e71565b91505061085c565b50919050565b60006001600160a01b0382166109c65760405162461bcd60e51b815260206004820152602960248201527f4552433732313a2061646472657373207a65726f206973206e6f7420612076616044820152683634b21037bbb732b960b91b6064820152608401610516565b506001600160a01b031660009081526003602052604090205490565b6109ea6110c1565b6109f4600061111b565b565b600c60205260009081526040902080548190610a1190611dc4565b80601f0160208091040260200160405190810160405280929190818152602001828054610a3d90611dc4565b8015610a8a5780601f10610a5f57610100808354040283529160200191610a8a565b820191906000526020600020905b815481529060010190602001808311610a6d57829003601f168201915b505050600190930154919250506001600160a01b031682565b6060600180546103f890611dc4565b6000815111610af95760405162461bcd60e51b815260206004820152601360248201527255524c2063616e6e6f7420626520656d70747960681b6044820152606401610516565b60408051808201825282815233602080830191909152600b546000908152600c9091529190912081518190610b2e9082611ed8565b50602091820151600191820180546001600160a01b0319166001600160a01b03909216919091179055336000908152600d835260408120600b8054825494850183559183529382209092019190915581549190610b8a83611e71565b919050555050565b610b9d33838361116d565b5050565b610bab3383610ed1565b610bc75760405162461bcd60e51b815260040161051690611df8565b610bd38484848461123b565b50505050565b6060610be482610e04565b6000610bfb60408051602081019091526000815290565b90506000815111610c1b5760405180602001604052806000815250610c46565b80610c258461126e565b604051602001610c36929190611f98565b6040516020818303038152906040525b9392505050565b60606000610c5a60085490565b905060008167ffffffffffffffff811115610c7757610c77611c04565b604051908082528060200260200182016040528015610ca0578160200160208202803683370190505b50905060005b82811015610ce657610cb7816106fe565b828281518110610cc957610cc9611e45565b602090810291909101015280610cde81611e71565b915050610ca6565b5092915050565b600d6020528160005260406000208181548110610d0957600080fd5b90600052602060002001600091509150505481565b610d266110c1565b6001600160a01b038116610d8b5760405162461bcd60e51b815260206004820152602660248201527f4f776e61626c653a206e6577206f776e657220697320746865207a65726f206160448201526564647265737360d01b6064820152608401610516565b610d948161111b565b50565b600e54610da43382611301565b600e8054906000610b8a83611e71565b60006001600160e01b031982166380ac58cd60e01b1480610de557506001600160e01b03198216635b5e139f60e01b145b806103e357506301ffc9a760e01b6001600160e01b03198316146103e3565b6000818152600260205260409020546001600160a01b0316610d945760405162461bcd60e51b8152602060048201526018602482015277115490cdcc8c4e881a5b9d985b1a59081d1bdad95b88125160421b6044820152606401610516565b600081815260046020526040902080546001600160a01b0319166001600160a01b0384169081179091558190610e9882610791565b6001600160a01b03167f8c5be1e5ebec7d5bd14f71427d1e84f3dd0314c0f7b2291e5b200ac8c7c3b92560405160405180910390a45050565b600080610edd83610791565b9050806001600160a01b0316846001600160a01b03161480610f2457506001600160a01b0380821660009081526005602090815260408083209388168352929052205460ff165b80610f485750836001600160a01b0316610f3d8461047b565b6001600160a01b0316145b949350505050565b826001600160a01b0316610f6382610791565b6001600160a01b031614610f895760405162461bcd60e51b815260040161051690611fc7565b6001600160a01b038216610feb5760405162461bcd60e51b8152602060048201526024808201527f4552433732313a207472616e7366657220746f20746865207a65726f206164646044820152637265737360e01b6064820152608401610516565b610ff8838383600161149a565b826001600160a01b031661100b82610791565b6001600160a01b0316146110315760405162461bcd60e51b815260040161051690611fc7565b600081815260046020908152604080832080546001600160a01b03199081169091556001600160a01b0387811680865260038552838620805460001901905590871680865283862080546001019055868652600290945282852080549092168417909155905184937fddf252ad1be2c89b69c2b068fc378daa952ba7f163c4a11628f55a4df523b3ef91a4505050565b600a546001600160a01b031633146109f45760405162461bcd60e51b815260206004820181905260248201527f4f776e61626c653a2063616c6c6572206973206e6f7420746865206f776e65726044820152606401610516565b600a80546001600160a01b038381166001600160a01b0319831681179093556040519116919082907f8be0079c531659141344cd1fd0a4f28419497f9722a3daafe3b4186f6b6457e090600090a35050565b816001600160a01b0316836001600160a01b0316036111ce5760405162461bcd60e51b815260206004820152601960248201527f4552433732313a20617070726f766520746f2063616c6c6572000000000000006044820152606401610516565b6001600160a01b03838116600081815260056020908152604080832094871680845294825291829020805460ff191686151590811790915591519182527f17307eab39ab6107e8899845ad3d59bd9653f200f220920489ca2b5937696c31910160405180910390a3505050565b611246848484610f50565b611252848484846115da565b610bd35760405162461bcd60e51b81526004016105169061200c565b6060600061127b836116db565b600101905060008167ffffffffffffffff81111561129b5761129b611c04565b6040519080825280601f01601f1916602001820160405280156112c5576020820181803683370190505b5090508181016020015b600019016f181899199a1a9b1b9c1cb0b131b232b360811b600a86061a8153600a85049450846112cf57509392505050565b6001600160a01b0382166113575760405162461bcd60e51b815260206004820181905260248201527f4552433732313a206d696e7420746f20746865207a65726f20616464726573736044820152606401610516565b6000818152600260205260409020546001600160a01b0316156113bc5760405162461bcd60e51b815260206004820152601c60248201527f4552433732313a20746f6b656e20616c7265616479206d696e746564000000006044820152606401610516565b6113ca60008383600161149a565b6000818152600260205260409020546001600160a01b03161561142f5760405162461bcd60e51b815260206004820152601c60248201527f4552433732313a20746f6b656e20616c7265616479206d696e746564000000006044820152606401610516565b6001600160a01b038216600081815260036020908152604080832080546001019055848352600290915280822080546001600160a01b0319168417905551839291907fddf252ad1be2c89b69c2b068fc378daa952ba7f163c4a11628f55a4df523b3ef908290a45050565b6114a6848484846117b3565b60018111156115155760405162461bcd60e51b815260206004820152603560248201527f455243373231456e756d657261626c653a20636f6e7365637574697665207472604482015274185b9cd9995c9cc81b9bdd081cdd5c1c1bdc9d1959605a1b6064820152608401610516565b816001600160a01b0385166115715761156c81600880546000838152600960205260408120829055600182018355919091527ff3f7a9fe364faab93b216da50a3214154f22a0a2b415b23a84c8169e8b636ee30155565b611594565b836001600160a01b0316856001600160a01b03161461159457611594858261183b565b6001600160a01b0384166115b0576115ab816118d8565b6115d3565b846001600160a01b0316846001600160a01b0316146115d3576115d38482611987565b5050505050565b60006001600160a01b0384163b156116d057604051630a85bd0160e11b81526001600160a01b0385169063150b7a029061161e90339089908890889060040161205e565b6020604051808303816000875af1925050508015611659575060408051601f3d908101601f191682019092526116569181019061209b565b60015b6116b6573d808015611687576040519150601f19603f3d011682016040523d82523d6000602084013e61168c565b606091505b5080516000036116ae5760405162461bcd60e51b81526004016105169061200c565b805181602001fd5b6001600160e01b031916630a85bd0160e11b149050610f48565b506001949350505050565b60008072184f03e93ff9f4daa797ed6e38ed64bf6a1f0160401b831061171a5772184f03e93ff9f4daa797ed6e38ed64bf6a1f0160401b830492506040015b6d04ee2d6d415b85acef81000000008310611746576d04ee2d6d415b85acef8100000000830492506020015b662386f26fc10000831061176457662386f26fc10000830492506010015b6305f5e100831061177c576305f5e100830492506008015b612710831061179057612710830492506004015b606483106117a2576064830492506002015b600a83106103e35760010192915050565b6001811115610bd3576001600160a01b038416156117f9576001600160a01b038416600090815260036020526040812080548392906117f39084906120b8565b90915550505b6001600160a01b03831615610bd3576001600160a01b038316600090815260036020526040812080548392906118309084906120cb565b909155505050505050565b600060016118488461095c565b61185291906120b8565b6000838152600760205260409020549091508082146118a5576001600160a01b03841660009081526006602090815260408083208584528252808320548484528184208190558352600790915290208190555b5060009182526007602090815260408084208490556001600160a01b039094168352600681528383209183525290812055565b6008546000906118ea906001906120b8565b6000838152600960205260408120546008805493945090928490811061191257611912611e45565b90600052602060002001549050806008838154811061193357611933611e45565b600091825260208083209091019290925582815260099091526040808220849055858252812055600880548061196b5761196b6120de565b6001900381819060005260206000200160009055905550505050565b60006119928361095c565b6001600160a01b039093166000908152600660209081526040808320868452825280832085905593825260079052919091209190915550565b6001600160e01b031981168114610d9457600080fd5b6000602082840312156119f357600080fd5b8135610c46816119cb565b60005b83811015611a19578181015183820152602001611a01565b50506000910152565b60008151808452611a3a8160208601602086016119fe565b601f01601f19169290920160200192915050565b602081526000610c466020830184611a22565b600060208284031215611a7357600080fd5b5035919050565b80356001600160a01b0381168114611a9157600080fd5b919050565b60008060408385031215611aa957600080fd5b611ab283611a7a565b946020939093013593505050565b600080600060608486031215611ad557600080fd5b611ade84611a7a565b9250611aec60208501611a7a565b9150604084013590509250925092565b6020808252825182820181905260009190848201906040850190845b81811015611b3457835183529284019291840191600101611b18565b50909695505050505050565b60006020808301818452808551808352604092508286019150828160051b87010184880160005b83811015611bb157888303603f1901855281518051878552611b8b88860182611a22565b918901516001600160a01b03169489019490945294870194925090860190600101611b67565b509098975050505050505050565b600060208284031215611bd157600080fd5b610c4682611a7a565b604081526000611bed6040830185611a22565b905060018060a01b03831660208301529392505050565b634e487b7160e01b600052604160045260246000fd5b600067ffffffffffffffff80841115611c3557611c35611c04565b604051601f8501601f19908116603f01168101908282118183101715611c5d57611c5d611c04565b81604052809350858152868686011115611c7657600080fd5b858560208301376000602087830101525050509392505050565b600060208284031215611ca257600080fd5b813567ffffffffffffffff811115611cb957600080fd5b8201601f81018413611cca57600080fd5b610f4884823560208401611c1a565b60008060408385031215611cec57600080fd5b611cf583611a7a565b915060208301358015158114611d0a57600080fd5b809150509250929050565b60008060008060808587031215611d2b57600080fd5b611d3485611a7a565b9350611d4260208601611a7a565b925060408501359150606085013567ffffffffffffffff811115611d6557600080fd5b8501601f81018713611d7657600080fd5b611d8587823560208401611c1a565b91505092959194509250565b60008060408385031215611da457600080fd5b611dad83611a7a565b9150611dbb60208401611a7a565b90509250929050565b600181811c90821680611dd857607f821691505b60208210810361095657634e487b7160e01b600052602260045260246000fd5b6020808252602d908201527f4552433732313a2063616c6c6572206973206e6f7420746f6b656e206f776e6560408201526c1c881bdc88185c1c1c9bdd9959609a1b606082015260800190565b634e487b7160e01b600052603260045260246000fd5b634e487b7160e01b600052601160045260246000fd5b600060018201611e8357611e83611e5b565b5060010190565b601f8211156105b757600081815260208120601f850160051c81016020861015611eb15750805b601f850160051c820191505b81811015611ed057828155600101611ebd565b505050505050565b815167ffffffffffffffff811115611ef257611ef2611c04565b611f0681611f008454611dc4565b84611e8a565b602080601f831160018114611f3b5760008415611f235750858301515b600019600386901b1c1916600185901b178555611ed0565b600085815260208120601f198616915b82811015611f6a57888601518255948401946001909101908401611f4b565b5085821015611f885787850151600019600388901b60f8161c191681555b5050505050600190811b01905550565b60008351611faa8184602088016119fe565b835190830190611fbe8183602088016119fe565b01949350505050565b60208082526025908201527f4552433732313a207472616e736665722066726f6d20696e636f72726563742060408201526437bbb732b960d91b606082015260800190565b60208082526032908201527f4552433732313a207472616e7366657220746f206e6f6e20455243373231526560408201527131b2b4bb32b91034b6b83632b6b2b73a32b960711b606082015260800190565b6001600160a01b038581168252841660208201526040810183905260806060820181905260009061209190830184611a22565b9695505050505050565b6000602082840312156120ad57600080fd5b8151610c46816119cb565b818103818111156103e3576103e3611e5b565b808201808211156103e3576103e3611e5b565b634e487b7160e01b600052603160045260246000fdfea2646970667358221220d213509b6adc1a2a6b1239173938b22db1e26b89b3cbe5002b8790e7046f73a064736f6c63430008110033",
  "devdoc": {
    "kind": "dev",
    "methods": {
      "approve(address,uint256)": {
        "details": "See {IERC721-approve}."
      },
      "balanceOf(address)": {
        "details": "See {IERC721-balanceOf}."
      },
      "getApproved(uint256)": {
        "details": "See {IERC721-getApproved}."
      },
      "isApprovedForAll(address,address)": {
        "details": "See {IERC721-isApprovedForAll}."
      },
      "name()": {
        "details": "See {IERC721Metadata-name}."
      },
      "owner()": {
        "details": "Returns the address of the current owner."
      },
      "ownerOf(uint256)": {
        "details": "See {IERC721-ownerOf}."
      },
      "renounceOwnership()": {
        "details": "Leaves the contract without owner. It will not be possible to call `onlyOwner` functions anymore. Can only be called by the current owner. NOTE: Renouncing ownership will leave the contract without an owner, thereby removing any functionality that is only available to the owner."
      },
      "safeTransferFrom(address,address,uint256)": {
        "details": "See {IERC721-safeTransferFrom}."
      },
      "safeTransferFrom(address,address,uint256,bytes)": {
        "details": "See {IERC721-safeTransferFrom}."
      },
      "setApprovalForAll(address,bool)": {
        "details": "See {IERC721-setApprovalForAll}."
      },
      "supportsInterface(bytes4)": {
        "details": "See {IERC165-supportsInterface}."
      },
      "symbol()": {
        "details": "See {IERC721Metadata-symbol}."
      },
      "tokenByIndex(uint256)": {
        "details": "See {IERC721Enumerable-tokenByIndex}."
      },
      "tokenOfOwnerByIndex(address,uint256)": {
        "details": "See {IERC721Enumerable-tokenOfOwnerByIndex}."
      },
      "tokenURI(uint256)": {
        "details": "See {IERC721Metadata-tokenURI}."
      },
      "totalSupply()": {
        "details": "See {IERC721Enumerable-totalSupply}."
      },
      "transferFrom(address,address,uint256)": {
        "details": "See {IERC721-transferFrom}."
      },
      "transferOwnership(address)": {
        "details": "Transfers ownership of the contract to a new account (`newOwner`). Can only be called by the current owner."
      }
    },
    "version": 1
  },
  "userdoc": {
    "kind": "user",
    "methods": {},
    "version": 1
  },
  "storageLayout": {
    "storage": [
      {
        "astId": 138,
        "contract": "contracts/QuizNFT.sol:QuizNFT",
        "label": "_name",
        "offset": 0,
        "slot": "0",
        "type": "t_string_storage"
      },
      {
        "astId": 140,
        "contract": "contracts/QuizNFT.sol:QuizNFT",
        "label": "_symbol",
        "offset": 0,
        "slot": "1",
        "type": "t_string_storage"
      },
      {
        "astId": 144,
        "contract": "contracts/QuizNFT.sol:QuizNFT",
        "label": "_owners",
        "offset": 0,
        "slot": "2",
        "type": "t_mapping(t_uint256,t_address)"
      },
      {
        "astId": 148,
        "contract": "contracts/QuizNFT.sol:QuizNFT",
        "label": "_balances",
        "offset": 0,
        "slot": "3",
        "type": "t_mapping(t_address,t_uint256)"
      },
      {
        "astId": 152,
        "contract": "contracts/QuizNFT.sol:QuizNFT",
        "label": "_tokenApprovals",
        "offset": 0,
        "slot": "4",
        "type": "t_mapping(t_uint256,t_address)"
      },
      {
        "astId": 158,
        "contract": "contracts/QuizNFT.sol:QuizNFT",
        "label": "_operatorApprovals",
        "offset": 0,
        "slot": "5",
        "type": "t_mapping(t_address,t_mapping(t_address,t_bool))"
      },
      {
        "astId": 1206,
        "contract": "contracts/QuizNFT.sol:QuizNFT",
        "label": "_ownedTokens",
        "offset": 0,
        "slot": "6",
        "type": "t_mapping(t_address,t_mapping(t_uint256,t_uint256))"
      },
      {
        "astId": 1210,
        "contract": "contracts/QuizNFT.sol:QuizNFT",
        "label": "_ownedTokensIndex",
        "offset": 0,
        "slot": "7",
        "type": "t_mapping(t_uint256,t_uint256)"
      },
      {
        "astId": 1213,
        "contract": "contracts/QuizNFT.sol:QuizNFT",
        "label": "_allTokens",
        "offset": 0,
        "slot": "8",
        "type": "t_array(t_uint256)dyn_storage"
      },
      {
        "astId": 1217,
        "contract": "contracts/QuizNFT.sol:QuizNFT",
        "label": "_allTokensIndex",
        "offset": 0,
        "slot": "9",
        "type": "t_mapping(t_uint256,t_uint256)"
      },
      {
        "astId": 7,
        "contract": "contracts/QuizNFT.sol:QuizNFT",
        "label": "_owner",
        "offset": 0,
        "slot": "10",
        "type": "t_address"
      },
      {
        "astId": 3049,
        "contract": "contracts/QuizNFT.sol:QuizNFT",
        "label": "quizCount",
        "offset": 0,
        "slot": "11",
        "type": "t_uint256"
      },
      {
        "astId": 3054,
        "contract": "contracts/QuizNFT.sol:QuizNFT",
        "label": "quizzes",
        "offset": 0,
        "slot": "12",
        "type": "t_mapping(t_uint256,t_struct(Quiz)3047_storage)"
      },
      {
        "astId": 3059,
        "contract": "contracts/QuizNFT.sol:QuizNFT",
        "label": "quizzesCreatedByWallet",
        "offset": 0,
        "slot": "13",
        "type": "t_mapping(t_address,t_array(t_uint256)dyn_storage)"
      },
      {
        "astId": 3061,
        "contract": "contracts/QuizNFT.sol:QuizNFT",
        "label": "_tokenIdCounter",
        "offset": 0,
        "slot": "14",
        "type": "t_uint256"
      }
    ],
    "types": {
      "t_address": {
        "encoding": "inplace",
        "label": "address",
        "numberOfBytes": "20"
      },
      "t_array(t_uint256)dyn_storage": {
        "base": "t_uint256",
        "encoding": "dynamic_array",
        "label": "uint256[]",
        "numberOfBytes": "32"
      },
      "t_bool": {
        "encoding": "inplace",
        "label": "bool",
        "numberOfBytes": "1"
      },
      "t_mapping(t_address,t_array(t_uint256)dyn_storage)": {
        "encoding": "mapping",
        "key": "t_address",
        "label": "mapping(address => uint256[])",
        "numberOfBytes": "32",
        "value": "t_array(t_uint256)dyn_storage"
      },
      "t_mapping(t_address,t_bool)": {
        "encoding": "mapping",
        "key": "t_address",
        "label": "mapping(address => bool)",
        "numberOfBytes": "32",
        "value": "t_bool"
      },
      "t_mapping(t_address,t_mapping(t_address,t_bool))": {
        "encoding": "mapping",
        "key": "t_address",
        "label": "mapping(address => mapping(address => bool))",
        "numberOfBytes": "32",
        "value": "t_mapping(t_address,t_bool)"
      },
      "t_mapping(t_address,t_mapping(t_uint256,t_uint256))": {
        "encoding": "mapping",
        "key": "t_address",
        "label": "mapping(address => mapping(uint256 => uint256))",
        "numberOfBytes": "32",
        "value": "t_mapping(t_uint256,t_uint256)"
      },
      "t_mapping(t_address,t_uint256)": {
        "encoding": "mapping",
        "key": "t_address",
        "label": "mapping(address => uint256)",
        "numberOfBytes": "32",
        "value": "t_uint256"
      },
      "t_mapping(t_uint256,t_address)": {
        "encoding": "mapping",
        "key": "t_uint256",
        "label": "mapping(uint256 => address)",
        "numberOfBytes": "32",
        "value": "t_address"
      },
      "t_mapping(t_uint256,t_struct(Quiz)3047_storage)": {
        "encoding": "mapping",
        "key": "t_uint256",
        "label": "mapping(uint256 => struct QuizNFT.Quiz)",
        "numberOfBytes": "32",
        "value": "t_struct(Quiz)3047_storage"
      },
      "t_mapping(t_uint256,t_uint256)": {
        "encoding": "mapping",
        "key": "t_uint256",
        "label": "mapping(uint256 => uint256)",
        "numberOfBytes": "32",
        "value": "t_uint256"
      },
      "t_string_storage": {
        "encoding": "bytes",
        "label": "string",
        "numberOfBytes": "32"
      },
      "t_struct(Quiz)3047_storage": {
        "encoding": "inplace",
        "label": "struct QuizNFT.Quiz",
        "members": [
          {
            "astId": 3044,
            "contract": "contracts/QuizNFT.sol:QuizNFT",
            "label": "url",
            "offset": 0,
            "slot": "0",
            "type": "t_string_storage"
          },
          {
            "astId": 3046,
            "contract": "contracts/QuizNFT.sol:QuizNFT",
            "label": "owner",
            "offset": 0,
            "slot": "1",
            "type": "t_address"
          }
        ],
        "numberOfBytes": "64"
      },
      "t_uint256": {
        "encoding": "inplace",
        "label": "uint256",
        "numberOfBytes": "32"
      }
    }
  }
}